{
  "contractName": "Victim",
  "abi": [
    {
      "inputs": [
        {
          "internalType": "address",
          "name": "",
          "type": "address"
        }
      ],
      "name": "balances",
      "outputs": [
        {
          "internalType": "uint256",
          "name": "",
          "type": "uint256"
        }
      ],
      "stateMutability": "view",
      "type": "function",
      "constant": true
    },
    {
      "inputs": [],
      "name": "deposit",
      "outputs": [],
      "stateMutability": "payable",
      "type": "function",
      "payable": true
    },
    {
      "inputs": [],
      "name": "withdraw",
      "outputs": [],
      "stateMutability": "nonpayable",
      "type": "function"
    },
    {
      "inputs": [],
      "name": "getvalutbalance",
      "outputs": [
        {
          "internalType": "uint256",
          "name": "",
          "type": "uint256"
        }
      ],
      "stateMutability": "view",
      "type": "function",
      "constant": true
    }
  ],
  "bytecode": "0x60808060405234610016576101e9908161001c8239f35b600080fdfe608060408181526004908136101561001657600080fd5b600092833560e01c90816327e235e31461017a5750806338d0b72b1461015f5780633ccfd60b1461008d5763d0e30db01461005057600080fd5b826003193601126100895733835282602052822080549134830180931161007657505580f35b634e487b7160e01b845260119052602483fd5b8280fd5b5082903461015b578160031936011261015b5733825281602052808220548015610123578280808093335af1503d1561011b5767ffffffffffffffff3d81811161010857825191601f19603f81601f85011601168301908382109111176101085783945081528260203d92013e5b3382528160205281205580f35b634e487b7160e01b845260418552602484fd5b8192506100fb565b815162461bcd60e51b815260208186015260126024820152714e6f7420656e6f7567682062616c616e636560701b6044820152606490fd5b5080fd5b83823461015b578160031936011261015b5751478152602090f35b929050346101af5760203660031901126101af57356001600160a01b038116908190036101af57835260208381529220548152f35b8380fdfea26469706673582212200d379f99aba0d86e8dcd2826bf8388f1a0a7140b7c1b0933a309e97309ed4afd64736f6c63430008130033",
  "immutableReferences": {},
  "source": "// SPDX-License-Identifier: MIT\npragma solidity 0.8.19;\n\ncontract Victim {\n    mapping(address=>uint256) public balances;\n\n    function deposit() external payable{\n        balances[msg.sender]+=msg.value;\n    }\n\n    function withdraw() public {\n        uint256 bal = balances[msg.sender];\n        require(bal>0,\"Not enough balance\");\n\n        (bool sent , ) = msg.sender.call{value:bal}(\"\");\n\n        balances[msg.sender] = 0;\n    }\n\n    function getvalutbalance() public view returns (uint256){\n        return address(this).balance;\n    }\n}",
  "sourcePath": "/home/aca/smartcontracts/reentrancy/contracts/Victim.sol",
  "compiler": {
    "name": "solc",
    "version": "0.8.19+commit.7dd6d404.Emscripten.clang"
  },
  "schemaVersion": "3.4.16",
  "updatedAt": "2025-04-21T17:54:05.756Z",
  "networkType": "ethereum",
  "devdoc": {
    "kind": "dev",
    "methods": {},
    "version": 1
  },
  "userdoc": {
    "kind": "user",
    "methods": {},
    "version": 1
  }
}