{
  "contractName": "Victim",
  "abi": [
    {
      "inputs": [],
      "name": "deposit",
      "outputs": [],
      "stateMutability": "payable",
      "type": "function"
    },
    {
      "inputs": [],
      "name": "withdraw",
      "outputs": [],
      "stateMutability": "nonpayable",
      "type": "function"
    },
    {
      "inputs": [],
      "name": "getvalutbalance",
      "outputs": [
        {
          "internalType": "uint256",
          "name": "",
          "type": "uint256"
        }
      ],
      "stateMutability": "view",
      "type": "function"
    }
  ],
  "bytecode": "0x608060405234801561001057600080fd5b506103ae806100206000396000f3fe6080604052600436106100345760003560e01c806338d0b72b146100395780633ccfd60b14610064578063d0e30db01461007b575b600080fd5b34801561004557600080fd5b5061004e610085565b60405161005b9190610237565b60405180910390f35b34801561007057600080fd5b5061007961008d565b005b6100836101c7565b005b600047905090565b60008060003373ffffffffffffffffffffffffffffffffffffffff1673ffffffffffffffffffffffffffffffffffffffff16815260200190815260200160002054905060008111610113576040517f08c379a000000000000000000000000000000000000000000000000000000000815260040161010a906102af565b60405180910390fd5b60003373ffffffffffffffffffffffffffffffffffffffff168260405161013990610300565b60006040518083038185875af1925050503d8060008114610176576040519150601f19603f3d011682016040523d82523d6000602084013e61017b565b606091505b5050905060008060003373ffffffffffffffffffffffffffffffffffffffff1673ffffffffffffffffffffffffffffffffffffffff168152602001908152602001600020819055505050565b346000803373ffffffffffffffffffffffffffffffffffffffff1673ffffffffffffffffffffffffffffffffffffffff16815260200190815260200160002060008282546102159190610344565b92505081905550565b6000819050919050565b6102318161021e565b82525050565b600060208201905061024c6000830184610228565b92915050565b600082825260208201905092915050565b7f4e6f7420656e6f7567682062616c616e63650000000000000000000000000000600082015250565b6000610299601283610252565b91506102a482610263565b602082019050919050565b600060208201905081810360008301526102c88161028c565b9050919050565b600081905092915050565b50565b60006102ea6000836102cf565b91506102f5826102da565b600082019050919050565b600061030b826102dd565b9150819050919050565b7f4e487b7100000000000000000000000000000000000000000000000000000000600052601160045260246000fd5b600061034f8261021e565b915061035a8361021e565b925082820190508082111561037257610371610315565b5b9291505056fea264697066735822122090bbe3df5b7fcc4c96522411de8c4d6ac231ab0d8f5c0fe09e6fe3a1be3d661064736f6c63430008130033",
  "immutableReferences": {},
  "source": "// SPDX-License-Identifier: MIT\npragma solidity 0.8.19;\n\ncontract Victim {\n    mapping(address=>uint256) balances;\n\n    function deposit() external payable{\n        balances[msg.sender]+=msg.value;\n    }\n\n    function withdraw() public {\n        uint256 bal = balances[msg.sender];\n        require(bal>0,\"Not enough balance\");\n\n        (bool sent , ) = msg.sender.call{value:bal}(\"\");\n\n        balances[msg.sender] = 0;\n    }\n\n    function getvalutbalance() public view returns (uint256){\n        return address(this).balance;\n    }\n}",
  "sourcePath": "/home/aca/smartcontracts/reentrancy/contracts/Victim.sol",
  "compiler": {
    "name": "solc",
    "version": "0.8.19+commit.7dd6d404.Emscripten.clang"
  },
  "schemaVersion": "3.4.16",
  "updatedAt": "2025-04-20T17:20:22.027Z",
  "devdoc": {
    "kind": "dev",
    "methods": {},
    "version": 1
  },
  "userdoc": {
    "kind": "user",
    "methods": {},
    "version": 1
  }
}